{
  "contractName": "RetailerRole",
  "abi": [
    {
      "inputs": [],
      "payable": false,
      "stateMutability": "nonpayable",
      "type": "constructor"
    },
    {
      "anonymous": false,
      "inputs": [
        {
          "indexed": false,
          "name": "account",
          "type": "address"
        }
      ],
      "name": "newRetailerAdded",
      "type": "event"
    },
    {
      "anonymous": false,
      "inputs": [
        {
          "indexed": false,
          "name": "account",
          "type": "address"
        }
      ],
      "name": "newRetailerRemoved",
      "type": "event"
    },
    {
      "constant": true,
      "inputs": [
        {
          "name": "account",
          "type": "address"
        }
      ],
      "name": "isRetailer",
      "outputs": [
        {
          "name": "",
          "type": "bool"
        }
      ],
      "payable": false,
      "stateMutability": "view",
      "type": "function"
    },
    {
      "constant": false,
      "inputs": [
        {
          "name": "account",
          "type": "address"
        }
      ],
      "name": "addRetailer",
      "outputs": [],
      "payable": false,
      "stateMutability": "nonpayable",
      "type": "function"
    },
    {
      "constant": false,
      "inputs": [],
      "name": "renounceRetailer",
      "outputs": [],
      "payable": false,
      "stateMutability": "nonpayable",
      "type": "function"
    }
  ],
  "bytecode": "0x608060405234801561001057600080fd5b506100293361002e640100000000026401000000009004565b610208565b61004f8160006100b5640100000000026102e1179091906401000000009004565b7f5b47c7102eec2aec3952690bc073a5b4c89c3742acb67b787149b599c3c95f2c81604051808273ffffffffffffffffffffffffffffffffffffffff1673ffffffffffffffffffffffffffffffffffffffff16815260200191505060405180910390a150565b600073ffffffffffffffffffffffffffffffffffffffff168173ffffffffffffffffffffffffffffffffffffffff16141515156100f157600080fd5b61010a8282610174640100000000026401000000009004565b15151561011657600080fd5b60018260000160008373ffffffffffffffffffffffffffffffffffffffff1673ffffffffffffffffffffffffffffffffffffffff16815260200190815260200160002060006101000a81548160ff0219169083151502179055505050565b60008073ffffffffffffffffffffffffffffffffffffffff168273ffffffffffffffffffffffffffffffffffffffff16141515156101b157600080fd5b8260000160008373ffffffffffffffffffffffffffffffffffffffff1673ffffffffffffffffffffffffffffffffffffffff16815260200190815260200160002060009054906101000a900460ff16905092915050565b61046c806102176000396000f300608060405260043610610057576000357c0100000000000000000000000000000000000000000000000000000000900463ffffffff1680635da09b881461005c5780638ec4f505146100b7578063db0e6a2f146100fa575b600080fd5b34801561006857600080fd5b5061009d600480360381019080803573ffffffffffffffffffffffffffffffffffffffff169060200190929190505050610111565b604051808215151515815260200191505060405180910390f35b3480156100c357600080fd5b506100f8600480360381019080803573ffffffffffffffffffffffffffffffffffffffff16906020019092919050505061012e565b005b34801561010657600080fd5b5061010f61014e565b005b600061012782600061015990919063ffffffff16565b9050919050565b61013733610111565b151561014257600080fd5b61014b816101ed565b50565b61015733610267565b565b60008073ffffffffffffffffffffffffffffffffffffffff168273ffffffffffffffffffffffffffffffffffffffff161415151561019657600080fd5b8260000160008373ffffffffffffffffffffffffffffffffffffffff1673ffffffffffffffffffffffffffffffffffffffff16815260200190815260200160002060009054906101000a900460ff16905092915050565b6102018160006102e190919063ffffffff16565b7f5b47c7102eec2aec3952690bc073a5b4c89c3742acb67b787149b599c3c95f2c81604051808273ffffffffffffffffffffffffffffffffffffffff1673ffffffffffffffffffffffffffffffffffffffff16815260200191505060405180910390a150565b61027b81600061039190919063ffffffff16565b7fcb086458e20a10ca946ee821e41f43574cd942ce020c816e94d46f7805f24afe81604051808273ffffffffffffffffffffffffffffffffffffffff1673ffffffffffffffffffffffffffffffffffffffff16815260200191505060405180910390a150565b600073ffffffffffffffffffffffffffffffffffffffff168173ffffffffffffffffffffffffffffffffffffffff161415151561031d57600080fd5b6103278282610159565b15151561033357600080fd5b60018260000160008373ffffffffffffffffffffffffffffffffffffffff1673ffffffffffffffffffffffffffffffffffffffff16815260200190815260200160002060006101000a81548160ff0219169083151502179055505050565b600073ffffffffffffffffffffffffffffffffffffffff168173ffffffffffffffffffffffffffffffffffffffff16141515156103cd57600080fd5b6103d78282610159565b15156103e257600080fd5b60008260000160008373ffffffffffffffffffffffffffffffffffffffff1673ffffffffffffffffffffffffffffffffffffffff16815260200190815260200160002060006101000a81548160ff02191690831515021790555050505600a165627a7a72305820904b808b7885379b808d4a5346cd1552b789560091fffbe62820dfed2ddceeff0029",
  "source": "pragma solidity ^0.4.24;\r\n\r\n// Import the library 'Roles'\r\nimport \"./Roles.sol\";\r\n\r\n// Define a contract 'RetailerRole' to manage this role - add, remove, check\r\ncontract RetailerRole {\r\nusing Roles for Roles.Role;\r\n  // Define 2 events, one for Adding, and other for Removing\r\n  event newRetailerAdded (address account);\r\n  event newRetailerRemoved (address account);\r\n  \r\n  // Define a struct 'retailers' by inheriting from 'Roles' library, struct Role\r\n  Roles.Role private retailers;\r\n  // In the constructor make the address that deploys this contract the 1st retailer\r\n  constructor() public {\r\n    _addRetailer(msg.sender);\r\n  }\r\n\r\n  // Define a modifier that checks to see if msg.sender has the appropriate role\r\n  modifier onlyRetailer() {\r\n    require(isRetailer(msg.sender));\r\n    _;\r\n  }\r\n\r\n  // Define a function 'isRetailer' to check this role\r\n  function isRetailer(address account) public view returns (bool) {\r\n    return retailers.has(account);\r\n  }\r\n\r\n  // Define a function 'addRetailer' that adds this role\r\n  function addRetailer(address account) public onlyRetailer {\r\n    _addRetailer(account);\r\n  }\r\n\r\n  // Define a function 'renounceRetailer' to renounce this role\r\n  function renounceRetailer() public {\r\n    _removeRetailer(msg.sender);\r\n  }\r\n\r\n  // Define an internal function '_addRetailer' to add this role, called by 'addRetailer'\r\n  function _addRetailer(address account) internal {\r\n    retailers.add(account);\r\n    emit newRetailerAdded(account);\r\n  }\r\n\r\n  // Define an internal function '_removeRetailer' to remove this role, called by 'removeRetailer'\r\n  function _removeRetailer(address account) internal {\r\n    retailers.remove(account);\r\n    emit newRetailerRemoved(account);\r\n  }\r\n}",
  "sourcePath": "C:\\Users\\personal\\Desktop\\stars_assignments\\nd1309-Project-6b-Example-Template\\project-6\\contracts\\coffeeaccesscontrol\\RetailerRole.sol",
  "compiler": {
    "name": "solc",
    "version": "0.4.24+commit.e67f0147.Emscripten.clang"
  },
  "schemaVersion": "2.0.1",
  "updatedAt": "2022-08-23T22:45:58.391Z"
}